:100000000C9446000C9465000C9465000C946500FB
:100010000C9465000C9465000C9465000C946500CC
:100020000C9465000C9465000C9465000C946500BC
:100030000C9465000C941C010C9465000C946500F4
:100040000C9465000C9465000C9465000C9465009C
:100050000C9465000C9465000C9465000C9465008C
:100060000C9465000C9465000C9465000C9465007C
:100070000C9465000C9465000C9465000C9465006C
:100080000C9465000C9465000C94650011241FBE4F
:10009000CFEFD0E4DEBFCDBF11E0A0E0B1E0E8E0FB
:1000A000F5E000E00BBF02C007900D92A231B1074E
:1000B000D9F721E0A2E1B1E001C01D92AC31B20755
:1000C000E1F70E9468020C9482020C94000040E068
:1000D00050E00CC000002F5F3F4F02C020E030E036
:1000E000273063E03607B4F34F5F5F4F4817590777
:1000F000ACF308959BB19F7B9BB988B98BB18068A5
:100100008BB900008BB18F778BB982E090E00E94B1
:100110006700089581E00E947A000895813120F4FB
:1001200081580E947A00089581550E947A000895AE
:1001300084E690E00E94670088E30E947A0086E0EF
:100140000E947A008FE00E947A0081E00E947A008B
:100150008AE090E00E94670008959BB190649BB98B
:1001600088B98BB180688BB900008BB18F778BB960
:1001700081E090E00E9467000895EF92FF920F9354
:100180001F93CF93DF93182FEB010E948A000EC0BC
:1001900001E0010F812F0E948E007E018FEFE81A8F
:1001A000F80A88810E94AD00102FE7018881811133
:1001B000EFCFDF91CF911F910F91FF90EF900895B6
:1001C000CF93C82F8A3019F48DE00E94E00080910F
:1001D000C00085FFFCCFC093C60080E090E0CF91C7
:1001E00008958BE0809381008DE790E090938900E3
:1001F0008093880082E080936F00109285001092B7
:1002000084008091000190910101A0910201B091C0
:1002100003018093150190931601A0931701B093E9
:1002200018018FB780688FBF0895109281000895DC
:1002300081E08093190108951F920F920FB60F92DB
:1002400011240BB60F922F933F934F935F936F93AD
:100250007F938F939F93AF93BF93EF93FF9380917F
:10026000150190911601A0911701B0911801019705
:10027000A109B1098093150190931601A09317016C
:10028000B0931801892B8A2B8B2B91F40E941801B3
:100290008091000190910101A0910201B0910301B0
:1002A0008093150190931601A0931701B093180144
:1002B000FF91EF91BF91AF919F918F917F916F913E
:1002C0005F914F913F912F910F900BBE0F900FBEFA
:1002D0000F901F9018956093000170930101809317
:1002E00002019093030160931501709316018093AE
:1002F000170190931801089580B180958370209123
:100300001A0130911B012230310509F473C038F411
:100310002115310579F021303105C9F008952430D7
:10032000310509F460C008F457C02530310509F4DF
:10033000BEC0089515B881E090E090931B018093B2
:100340001A010E948E0080E30E94AD000895813062
:10035000A9F483E090E090931B0180931A0185B18A
:10036000893008F0B4C085B18F5F85B981E00E9403
:100370008E0085B1805D0E94AD0008958230A9F4A1
:1003800084E090E090931B0180931A0185B188234B
:1003900009F49DC085B1815085B981E00E948E002D
:1003A00085B1805D0E94AD000895833071F415B869
:1003B00085E090E090931B0180931A0181E00E94F8
:1003C0008E0080E30E94AD00089581E090E090935C
:1003D0001B0180931A01089582E090E090931B0125
:1003E00080931A01089582E090E090931B0180931E
:1003F0001A0108959FEF980F923008F041C08130A4
:10040000F1F485B18930A0F480911201893020F493
:100410008F5F809312010CC01092120185B18F5F23
:1004200085B981E00E948E0085B1805D0E94AD009B
:1004300082E090E090931B0180931A01089582302E
:1004400009F045C085B18823A1F08091120189305F
:1004500020F48F5F809312010CC01092120185B1BD
:10046000815085B981E00E948E0085B1805D0E9437
:10047000AD0082E090E090931B0180931A010895F3
:10048000833071F485E090E090931B0180931A0112
:1004900081E00E948E0080E30E94AD0015B80895AF
:1004A00081E090E090931B0180931A0108958150A0
:1004B000823038F485E090E090931B0180931A011C
:1004C000089581E090E090931B0180931A010895B4
:1004D00011B88FEF82B987B918B88AB91BB80E94D2
:1004E000980064E670E080E090E00E946B010E945A
:1004F000F1000E947C01809119018823E1F31092A0
:080500001901F7CFF894FFCFB9
:10050800010000000000000200000000E000000000
:020518000000E1
:00000001FF
